{
  "contractName": "escrow",
  "abi": [
    {
      "constant": true,
      "inputs": [],
      "name": "seller",
      "outputs": [
        {
          "name": "",
          "type": "address"
        }
      ],
      "payable": false,
      "stateMutability": "view",
      "type": "function"
    },
    {
      "constant": true,
      "inputs": [],
      "name": "buyer",
      "outputs": [
        {
          "name": "",
          "type": "address"
        }
      ],
      "payable": false,
      "stateMutability": "view",
      "type": "function"
    },
    {
      "constant": false,
      "inputs": [
        {
          "name": "seller",
          "type": "address"
        },
        {
          "name": "buyer",
          "type": "address"
        }
      ],
      "name": "setup",
      "outputs": [],
      "payable": false,
      "stateMutability": "nonpayable",
      "type": "function"
    },
    {
      "constant": false,
      "inputs": [],
      "name": "approve",
      "outputs": [],
      "payable": false,
      "stateMutability": "nonpayable",
      "type": "function"
    },
    {
      "constant": false,
      "inputs": [],
      "name": "abort",
      "outputs": [],
      "payable": false,
      "stateMutability": "nonpayable",
      "type": "function"
    },
    {
      "constant": false,
      "inputs": [],
      "name": "payOut",
      "outputs": [],
      "payable": false,
      "stateMutability": "nonpayable",
      "type": "function"
    },
    {
      "constant": false,
      "inputs": [],
      "name": "deposit",
      "outputs": [],
      "payable": false,
      "stateMutability": "nonpayable",
      "type": "function"
    },
    {
      "constant": false,
      "inputs": [],
      "name": "refund",
      "outputs": [],
      "payable": false,
      "stateMutability": "nonpayable",
      "type": "function"
    },
    {
      "constant": false,
      "inputs": [],
      "name": "fee",
      "outputs": [],
      "payable": false,
      "stateMutability": "nonpayable",
      "type": "function"
    }
  ],
  "bytecode": "0x608060405233600360006101000a81548173ffffffffffffffffffffffffffffffffffffffff021916908373ffffffffffffffffffffffffffffffffffffffff16021790555034801561005157600080fd5b506107ff806100616000396000f300608060405260043610610099576000357c0100000000000000000000000000000000000000000000000000000000900463ffffffff16806308551a531461009e57806312424e3f146100f55780632d34ba791461010c57806335a063b41461016f578063590e1ae3146101865780637150d8ae1461019d578063c2052403146101f4578063d0e30db01461020b578063ddca3f4314610222575b600080fd5b3480156100aa57600080fd5b506100b3610239565b604051808273ffffffffffffffffffffffffffffffffffffffff1673ffffffffffffffffffffffffffffffffffffffff16815260200191505060405180910390f35b34801561010157600080fd5b5061010a61025f565b005b34801561011857600080fd5b5061016d600480360381019080803573ffffffffffffffffffffffffffffffffffffffff169060200190929190803573ffffffffffffffffffffffffffffffffffffffff169060200190929190505050610380565b005b34801561017b57600080fd5b506101846103e1565b005b34801561019257600080fd5b5061019b610504565b005b3480156101a957600080fd5b506101b261057c565b604051808273ffffffffffffffffffffffffffffffffffffffff1673ffffffffffffffffffffffffffffffffffffffff16815260200191505060405180910390f35b34801561020057600080fd5b506102096105a2565b005b34801561021757600080fd5b5061022061067e565b005b34801561022e57600080fd5b5061023761074e565b005b600160009054906101000a900473ffffffffffffffffffffffffffffffffffffffff1681565b600260009054906101000a900473ffffffffffffffffffffffffffffffffffffffff1673ffffffffffffffffffffffffffffffffffffffff163373ffffffffffffffffffffffffffffffffffffffff1614156102d5576001600360156101000a81548160ff021916908315150217905550610348565b600160009054906101000a900473ffffffffffffffffffffffffffffffffffffffff1673ffffffffffffffffffffffffffffffffffffffff163373ffffffffffffffffffffffffffffffffffffffff161415610347576001600360146101000a81548160ff0219169083151502179055505b5b600360149054906101000a900460ff1680156103705750600360159054906101000a900460ff165b1561037e5761037d61074e565b5b565b600360009054906101000a900473ffffffffffffffffffffffffffffffffffffffff1673ffffffffffffffffffffffffffffffffffffffff163373ffffffffffffffffffffffffffffffffffffffff1614156103dd578191508090505b5050565b600260009054906101000a900473ffffffffffffffffffffffffffffffffffffffff1673ffffffffffffffffffffffffffffffffffffffff163373ffffffffffffffffffffffffffffffffffffffff161415610457576000600360156101000a81548160ff0219169083151502179055506104ca565b600160009054906101000a900473ffffffffffffffffffffffffffffffffffffffff1673ffffffffffffffffffffffffffffffffffffffff163373ffffffffffffffffffffffffffffffffffffffff1614156104c9576000600360146101000a81548160ff0219169083151502179055505b5b600360149054906101000a900460ff161580156104f45750600360159054906101000a900460ff16155b1561050257610501610504565b5b565b60001515600360159054906101000a900460ff16151514801561053a575060001515600360149054906101000a900460ff161515145b1561057a57600260009054906101000a900473ffffffffffffffffffffffffffffffffffffffff1673ffffffffffffffffffffffffffffffffffffffff16ff5b565b600260009054906101000a900473ffffffffffffffffffffffffffffffffffffffff1681565b600160009054906101000a900473ffffffffffffffffffffffffffffffffffffffff1673ffffffffffffffffffffffffffffffffffffffff166108fc3073ffffffffffffffffffffffffffffffffffffffff16319081150290604051600060405180830381858888f193505050501561067c576000806000600260009054906101000a900473ffffffffffffffffffffffffffffffffffffffff1673ffffffffffffffffffffffffffffffffffffffff1673ffffffffffffffffffffffffffffffffffffffff168152602001908152602001600020819055505b565b600260009054906101000a900473ffffffffffffffffffffffffffffffffffffffff1673ffffffffffffffffffffffffffffffffffffffff163373ffffffffffffffffffffffffffffffffffffffff1614156107475734600080600260009054906101000a900473ffffffffffffffffffffffffffffffffffffffff1673ffffffffffffffffffffffffffffffffffffffff1673ffffffffffffffffffffffffffffffffffffffff1681526020019081526020016000206000828254019250508190555061074c565b600080fd5b565b600360009054906101000a900473ffffffffffffffffffffffffffffffffffffffff1673ffffffffffffffffffffffffffffffffffffffff166108fc60643073ffffffffffffffffffffffffffffffffffffffff16318115156107ad57fe5b049081150290604051600060405180830381858888f19350505050506107d16105a2565b5600a165627a7a72305820785f71fd0edc79ab3afa93fb369fb6cf78e2aee39d841d422d779327ab510d800029",
  "source": "\ncontract escrow{\n\n    mapping (address => uint) balances;\n\n    address public seller;\n    address public buyer;\n    address escrow = msg.sender;\n    bool sellerApprove;\n    bool buyerApprove;\n\n    function setup(address seller, address buyer){\n        if(msg.sender == escrow){\n            seller = seller;\n            buyer = buyer;\n        }\n    }\n\n    function approve(){\n        if(msg.sender == buyer) buyerApprove = true;\n        else if(msg.sender == seller) sellerApprove = true;\n        if(sellerApprove && buyerApprove) fee();\n    }\n\n    function abort(){\n        if(msg.sender == buyer) buyerApprove = false;\n        else if (msg.sender == seller) sellerApprove = false;\n        if(!sellerApprove && !buyerApprove) refund();\n    }\n\n    function payOut(){\n        if(seller.send(this.balance)) balances[buyer] = 0;\n    }\n\n    function deposit(){\n        if(msg.sender == buyer) balances[buyer] += msg.value;\n        else throw;\n    }\n\n    function killContract() internal {\n        selfdestruct(escrow);\n        //kills contract and returns funds to buyer\n    }\n\n    function refund(){\n        if(buyerApprove == false && sellerApprove == false) selfdestruct(buyer);\n        //send money back to recipient if both parties agree contract is void\n    }\n\n    function fee(){\n        escrow.send(this.balance / 100); //1% fee\n        payOut();\n    }\n\n}",
  "sourcePath": "/home/ec2-user/workspace/project1/contracts/Escrow.sol",
  "compiler": {
    "name": "solc",
    "version": "0.4.23+commit.124ca40d.Emscripten.clang"
  },
  "schemaVersion": "2.0.0",
  "updatedAt": "2018-05-11T01:03:09.352Z"
}