{
  "contractName": "Escrow",
  "abi": [
    {
      "constant": true,
      "inputs": [],
      "name": "seller",
      "outputs": [
        {
          "name": "",
          "type": "address"
        }
      ],
      "payable": false,
      "stateMutability": "view",
      "type": "function"
    },
    {
      "constant": true,
      "inputs": [],
      "name": "sellername",
      "outputs": [
        {
          "name": "",
          "type": "string"
        }
      ],
      "payable": false,
      "stateMutability": "view",
      "type": "function"
    },
    {
      "constant": true,
      "inputs": [],
      "name": "created",
      "outputs": [
        {
          "name": "",
          "type": "uint256"
        }
      ],
      "payable": false,
      "stateMutability": "view",
      "type": "function"
    },
    {
      "constant": true,
      "inputs": [],
      "name": "buyer",
      "outputs": [
        {
          "name": "",
          "type": "address"
        }
      ],
      "payable": false,
      "stateMutability": "view",
      "type": "function"
    },
    {
      "constant": true,
      "inputs": [],
      "name": "broker",
      "outputs": [
        {
          "name": "",
          "type": "string"
        }
      ],
      "payable": false,
      "stateMutability": "view",
      "type": "function"
    },
    {
      "anonymous": false,
      "inputs": [
        {
          "indexed": false,
          "name": "seller",
          "type": "address"
        },
        {
          "indexed": false,
          "name": "buyer",
          "type": "address"
        }
      ],
      "name": "escrowEvent1",
      "type": "event"
    },
    {
      "anonymous": false,
      "inputs": [
        {
          "indexed": false,
          "name": "message",
          "type": "string"
        }
      ],
      "name": "verify",
      "type": "event"
    },
    {
      "constant": false,
      "inputs": [
        {
          "name": "name",
          "type": "string"
        }
      ],
      "name": "start",
      "outputs": [
        {
          "name": "",
          "type": "string"
        }
      ],
      "payable": false,
      "stateMutability": "nonpayable",
      "type": "function"
    },
    {
      "constant": false,
      "inputs": [
        {
          "name": "seller",
          "type": "address"
        },
        {
          "name": "buyer",
          "type": "address"
        }
      ],
      "name": "setup",
      "outputs": [],
      "payable": false,
      "stateMutability": "nonpayable",
      "type": "function"
    },
    {
      "constant": false,
      "inputs": [],
      "name": "approve",
      "outputs": [],
      "payable": false,
      "stateMutability": "nonpayable",
      "type": "function"
    },
    {
      "constant": false,
      "inputs": [],
      "name": "abort",
      "outputs": [],
      "payable": false,
      "stateMutability": "nonpayable",
      "type": "function"
    },
    {
      "constant": false,
      "inputs": [],
      "name": "payOut",
      "outputs": [],
      "payable": false,
      "stateMutability": "nonpayable",
      "type": "function"
    },
    {
      "constant": false,
      "inputs": [],
      "name": "deposit",
      "outputs": [],
      "payable": false,
      "stateMutability": "nonpayable",
      "type": "function"
    },
    {
      "constant": false,
      "inputs": [],
      "name": "refund",
      "outputs": [],
      "payable": false,
      "stateMutability": "nonpayable",
      "type": "function"
    },
    {
      "constant": false,
      "inputs": [],
      "name": "fee",
      "outputs": [],
      "payable": false,
      "stateMutability": "nonpayable",
      "type": "function"
    }
  ],
  "bytecode": "0x608060405233600360006101000a81548173ffffffffffffffffffffffffffffffffffffffff021916908373ffffffffffffffffffffffffffffffffffffffff16021790555034801561005157600080fd5b50610e09806100616000396000f3006080604052600436106100c5576000357c0100000000000000000000000000000000000000000000000000000000900463ffffffff16806308551a53146100ca57806312424e3f14610121578063258e60b6146101385780632d34ba791461021a5780632f3a08a31461027d578063325a19f11461030d57806335a063b414610338578063590e1ae31461034f5780637150d8ae14610366578063abff0110146103bd578063c20524031461044d578063d0e30db014610464578063ddca3f431461047b575b600080fd5b3480156100d657600080fd5b506100df610492565b604051808273ffffffffffffffffffffffffffffffffffffffff1673ffffffffffffffffffffffffffffffffffffffff16815260200191505060405180910390f35b34801561012d57600080fd5b506101366104b8565b005b34801561014457600080fd5b5061019f600480360381019080803590602001908201803590602001908080601f01602080910402602001604051908101604052809392919081815260200183838082843782019150505050505091929192905050506105d9565b6040518080602001828103825283818151815260200191508051906020019080838360005b838110156101df5780820151818401526020810190506101c4565b50505050905090810190601f16801561020c5780820380516001836020036101000a031916815260200191505b509250505060405180910390f35b34801561022657600080fd5b5061027b600480360381019080803573ffffffffffffffffffffffffffffffffffffffff169060200190929190803573ffffffffffffffffffffffffffffffffffffffff16906020019092919050505061070c565b005b34801561028957600080fd5b50610292610804565b6040518080602001828103825283818151815260200191508051906020019080838360005b838110156102d25780820151818401526020810190506102b7565b50505050905090810190601f1680156102ff5780820380516001836020036101000a031916815260200191505b509250505060405180910390f35b34801561031957600080fd5b506103226108a2565b6040518082815260200191505060405180910390f35b34801561034457600080fd5b5061034d6108a8565b005b34801561035b57600080fd5b506103646109cb565b005b34801561037257600080fd5b5061037b610a43565b604051808273ffffffffffffffffffffffffffffffffffffffff1673ffffffffffffffffffffffffffffffffffffffff16815260200191505060405180910390f35b3480156103c957600080fd5b506103d2610a69565b6040518080602001828103825283818151815260200191508051906020019080838360005b838110156104125780820151818401526020810190506103f7565b50505050905090810190601f16801561043f5780820380516001836020036101000a031916815260200191505b509250505060405180910390f35b34801561045957600080fd5b50610462610b07565b005b34801561047057600080fd5b50610479610be3565b005b34801561048757600080fd5b50610490610cb3565b005b600160009054906101000a900473ffffffffffffffffffffffffffffffffffffffff1681565b600260009054906101000a900473ffffffffffffffffffffffffffffffffffffffff1673ffffffffffffffffffffffffffffffffffffffff163373ffffffffffffffffffffffffffffffffffffffff16141561052e576001600360156101000a81548160ff0219169083151502179055506105a1565b600160009054906101000a900473ffffffffffffffffffffffffffffffffffffffff1673ffffffffffffffffffffffffffffffffffffffff163373ffffffffffffffffffffffffffffffffffffffff1614156105a0576001600360146101000a81548160ff0219169083151502179055505b5b600360149054906101000a900460ff1680156105c95750600360159054906101000a900460ff165b156105d7576105d6610cb3565b5b565b60608082600490805190602001906105f2929190610d38565b50426006819055506040805190810160405280601181526020017f4576656e74207472696767657265642d2d00000000000000000000000000000081525090507fbb9c6c3e7787f8038a1ee07d29b6d88c242044630b69b479cb2922272b0f7d22816040518080602001828103825283818151815260200191508051906020019080838360005b83811015610694578082015181840152602081019050610679565b50505050905090810190601f1680156106c15780820380516001836020036101000a031916815260200191505b509250505060405180910390a16040805190810160405280601081526020017f436f6e7472616374207374617274656400000000000000000000000000000000815250915050919050565b600360009054906101000a900473ffffffffffffffffffffffffffffffffffffffff1673ffffffffffffffffffffffffffffffffffffffff163373ffffffffffffffffffffffffffffffffffffffff161415610769578191508090505b7fd87b668f54c1cc05d1528fc7de9dc8cd1cfc172dce5d66925b10a17c05cb46ef8282604051808373ffffffffffffffffffffffffffffffffffffffff1673ffffffffffffffffffffffffffffffffffffffff1681526020018273ffffffffffffffffffffffffffffffffffffffff1673ffffffffffffffffffffffffffffffffffffffff1681526020019250505060405180910390a15050565b60048054600181600116156101000203166002900480601f01602080910402602001604051908101604052809291908181526020018280546001816001161561010002031660029004801561089a5780601f1061086f5761010080835404028352916020019161089a565b820191906000526020600020905b81548152906001019060200180831161087d57829003601f168201915b505050505081565b60065481565b600260009054906101000a900473ffffffffffffffffffffffffffffffffffffffff1673ffffffffffffffffffffffffffffffffffffffff163373ffffffffffffffffffffffffffffffffffffffff16141561091e576000600360156101000a81548160ff021916908315150217905550610991565b600160009054906101000a900473ffffffffffffffffffffffffffffffffffffffff1673ffffffffffffffffffffffffffffffffffffffff163373ffffffffffffffffffffffffffffffffffffffff161415610990576000600360146101000a81548160ff0219169083151502179055505b5b600360149054906101000a900460ff161580156109bb5750600360159054906101000a900460ff16155b156109c9576109c86109cb565b5b565b60001515600360159054906101000a900460ff161515148015610a01575060001515600360149054906101000a900460ff161515145b15610a4157600260009054906101000a900473ffffffffffffffffffffffffffffffffffffffff1673ffffffffffffffffffffffffffffffffffffffff16ff5b565b600260009054906101000a900473ffffffffffffffffffffffffffffffffffffffff1681565b60058054600181600116156101000203166002900480601f016020809104026020016040519081016040528092919081815260200182805460018160011615610100020316600290048015610aff5780601f10610ad457610100808354040283529160200191610aff565b820191906000526020600020905b815481529060010190602001808311610ae257829003601f168201915b505050505081565b600160009054906101000a900473ffffffffffffffffffffffffffffffffffffffff1673ffffffffffffffffffffffffffffffffffffffff166108fc3073ffffffffffffffffffffffffffffffffffffffff16319081150290604051600060405180830381858888f1935050505015610be1576000806000600260009054906101000a900473ffffffffffffffffffffffffffffffffffffffff1673ffffffffffffffffffffffffffffffffffffffff1673ffffffffffffffffffffffffffffffffffffffff168152602001908152602001600020819055505b565b600260009054906101000a900473ffffffffffffffffffffffffffffffffffffffff1673ffffffffffffffffffffffffffffffffffffffff163373ffffffffffffffffffffffffffffffffffffffff161415610cac5734600080600260009054906101000a900473ffffffffffffffffffffffffffffffffffffffff1673ffffffffffffffffffffffffffffffffffffffff1673ffffffffffffffffffffffffffffffffffffffff16815260200190815260200160002060008282540192505081905550610cb1565b600080fd5b565b600360009054906101000a900473ffffffffffffffffffffffffffffffffffffffff1673ffffffffffffffffffffffffffffffffffffffff166108fc60643073ffffffffffffffffffffffffffffffffffffffff1631811515610d1257fe5b049081150290604051600060405180830381858888f1935050505050610d36610b07565b565b828054600181600116156101000203166002900490600052602060002090601f016020900481019282601f10610d7957805160ff1916838001178555610da7565b82800160010185558215610da7579182015b82811115610da6578251825591602001919060010190610d8b565b5b509050610db49190610db8565b5090565b610dda91905b80821115610dd6576000816000905550600101610dbe565b5090565b905600a165627a7a72305820d5d71ffe120b4e14d78faa8cc97b924d3f854c78e6462c8e885753ded6fea6f40029",
  "source": "pragma solidity ^0.4.23;\n\ncontract Escrow{\n\n    mapping (address => uint) balances;\n\n    address public seller;\n    address public buyer;\n    address escrow = msg.sender;\n    bool sellerApprove;\n    bool buyerApprove;\n    string public sellername;\n    string public broker;\n    uint256 public created;\n\n    event escrowEvent1(address seller, address buyer);\n    event verify(string message);\n\n\n    function start(string name) returns (string){\n        sellername = name;\n        created = now;\n\n        string memory message = \"Event triggered--\";\n        emit verify(message);\n        return \"Contract started\";\n    }\n\n    function setup(address seller,address  buyer){\n        if(msg.sender == escrow){\n            seller = seller;\n            buyer = buyer;\n        }\n\n        //todo add date\n        emit escrowEvent1(seller, buyer);\n    }\n\n    function approve(){\n        if(msg.sender == buyer) buyerApprove = true;\n        else if(msg.sender == seller) sellerApprove = true;\n        if(sellerApprove && buyerApprove) fee();\n    }\n\n    function abort(){\n        if(msg.sender == buyer) buyerApprove = false;\n        else if (msg.sender == seller) sellerApprove = false;\n        if(!sellerApprove && !buyerApprove) refund();\n    }\n\n    function payOut(){\n        if(seller.send(this.balance)) balances[buyer] = 0;\n    }\n\n    function deposit(){\n        if(msg.sender == buyer) balances[buyer] += msg.value;\n        else revert();\n    }\n\n    function killContract() internal {\n        selfdestruct(escrow);\n        //kills contract and returns funds to buyer\n    }\n\n    function refund(){\n        if(buyerApprove == false && sellerApprove == false) selfdestruct(buyer);\n        //send money back to recipient if both parties agree contract is void\n    }\n\n    function fee(){\n        escrow.send(this.balance / 100); //1% fee\n        payOut();\n    }\n\n}",
  "sourcePath": "/home/ec2-user/workspace/contract1/contracts/Escrow.sol",
  "compiler": {
    "name": "solc",
    "version": "0.4.23+commit.124ca40d.Emscripten.clang"
  },
  "schemaVersion": "2.0.0",
  "updatedAt": "2018-05-14T22:48:14.549Z"
}